{
	"compilerInput": "{\"language\":\"Solidity\",\"sources\":{\"hello.sol\":{\"content\":\"// SPDX-License-Identifier: MIT\\n\\npragma solidity 0.8.19; \\ncontract hello{ \\n\\n    function hello_world() public pure returns( string memory){\\n        return \\\"Hello world\\\";\\n    }\\n}\"}},\"settings\":{\"optimizer\":{\"enabled\":false,\"runs\":200},\"outputSelection\":{\"*\":{\"\":[\"ast\"],\"*\":[\"abi\",\"metadata\",\"devdoc\",\"userdoc\",\"storageLayout\",\"evm.legacyAssembly\",\"evm.bytecode\",\"evm.deployedBytecode\",\"evm.methodIdentifiers\",\"evm.gasEstimates\",\"evm.assembly\"]}},\"remappings\":[]}}",
	"name": "hello",
	"bytecode": {
		"linkReferences": {},
		"object": "608060405234801561001057600080fd5b50610173806100206000396000f3fe608060405234801561001057600080fd5b506004361061002b5760003560e01c80639476f92214610030575b600080fd5b61003861004e565b604051610045919061011b565b60405180910390f35b60606040518060400160405280600b81526020017f48656c6c6f20776f726c64000000000000000000000000000000000000000000815250905090565b600081519050919050565b600082825260208201905092915050565b60005b838110156100c55780820151818401526020810190506100aa565b60008484015250505050565b6000601f19601f8301169050919050565b60006100ed8261008b565b6100f78185610096565b93506101078185602086016100a7565b610110816100d1565b840191505092915050565b6000602082019050818103600083015261013581846100e2565b90509291505056fea26469706673582212207b1b4370a0fa5a09eb95d0f3106f86ef833bffa2aed9d25d3495f8e2e65ffc4564736f6c63430008130033",
		"opcodes": "PUSH1 0x80 PUSH1 0x40 MSTORE CALLVALUE DUP1 ISZERO PUSH2 0x10 JUMPI PUSH1 0x0 DUP1 REVERT JUMPDEST POP PUSH2 0x173 DUP1 PUSH2 0x20 PUSH1 0x0 CODECOPY PUSH1 0x0 RETURN INVALID PUSH1 0x80 PUSH1 0x40 MSTORE CALLVALUE DUP1 ISZERO PUSH2 0x10 JUMPI PUSH1 0x0 DUP1 REVERT JUMPDEST POP PUSH1 0x4 CALLDATASIZE LT PUSH2 0x2B JUMPI PUSH1 0x0 CALLDATALOAD PUSH1 0xE0 SHR DUP1 PUSH4 0x9476F922 EQ PUSH2 0x30 JUMPI JUMPDEST PUSH1 0x0 DUP1 REVERT JUMPDEST PUSH2 0x38 PUSH2 0x4E JUMP JUMPDEST PUSH1 0x40 MLOAD PUSH2 0x45 SWAP2 SWAP1 PUSH2 0x11B JUMP JUMPDEST PUSH1 0x40 MLOAD DUP1 SWAP2 SUB SWAP1 RETURN JUMPDEST PUSH1 0x60 PUSH1 0x40 MLOAD DUP1 PUSH1 0x40 ADD PUSH1 0x40 MSTORE DUP1 PUSH1 0xB DUP2 MSTORE PUSH1 0x20 ADD PUSH32 0x48656C6C6F20776F726C64000000000000000000000000000000000000000000 DUP2 MSTORE POP SWAP1 POP SWAP1 JUMP JUMPDEST PUSH1 0x0 DUP2 MLOAD SWAP1 POP SWAP2 SWAP1 POP JUMP JUMPDEST PUSH1 0x0 DUP3 DUP3 MSTORE PUSH1 0x20 DUP3 ADD SWAP1 POP SWAP3 SWAP2 POP POP JUMP JUMPDEST PUSH1 0x0 JUMPDEST DUP4 DUP2 LT ISZERO PUSH2 0xC5 JUMPI DUP1 DUP3 ADD MLOAD DUP2 DUP5 ADD MSTORE PUSH1 0x20 DUP2 ADD SWAP1 POP PUSH2 0xAA JUMP JUMPDEST PUSH1 0x0 DUP5 DUP5 ADD MSTORE POP POP POP POP JUMP JUMPDEST PUSH1 0x0 PUSH1 0x1F NOT PUSH1 0x1F DUP4 ADD AND SWAP1 POP SWAP2 SWAP1 POP JUMP JUMPDEST PUSH1 0x0 PUSH2 0xED DUP3 PUSH2 0x8B JUMP JUMPDEST PUSH2 0xF7 DUP2 DUP6 PUSH2 0x96 JUMP JUMPDEST SWAP4 POP PUSH2 0x107 DUP2 DUP6 PUSH1 0x20 DUP7 ADD PUSH2 0xA7 JUMP JUMPDEST PUSH2 0x110 DUP2 PUSH2 0xD1 JUMP JUMPDEST DUP5 ADD SWAP2 POP POP SWAP3 SWAP2 POP POP JUMP JUMPDEST PUSH1 0x0 PUSH1 0x20 DUP3 ADD SWAP1 POP DUP2 DUP2 SUB PUSH1 0x0 DUP4 ADD MSTORE PUSH2 0x135 DUP2 DUP5 PUSH2 0xE2 JUMP JUMPDEST SWAP1 POP SWAP3 SWAP2 POP POP JUMP INVALID LOG2 PUSH5 0x6970667358 0x22 SLT KECCAK256 PUSH28 0x1B4370A0FA5A09EB95D0F3106F86EF833BFFA2AED9D25D3495F8E2E6 0x5F 0xFC GASLIMIT PUSH5 0x736F6C6343 STOP ADDMOD SGT STOP CALLER "
	},
	"abi": [
		{
			"inputs": [],
			"name": "hello_world",
			"outputs": [
				{
					"internalType": "string",
					"name": "",
					"type": "string"
				}
			],
			"stateMutability": "pure",
			"type": "function"
		}
	],
	"storageLayout": {
		"storage": [],
		"types": null
	},
	"web3Deploy": "var helloContract = new web3.eth.Contract([{\"inputs\":[],\"name\":\"hello_world\",\"outputs\":[{\"internalType\":\"string\",\"name\":\"\",\"type\":\"string\"}],\"stateMutability\":\"pure\",\"type\":\"function\"}]);\nvar hello = helloContract.deploy({\n     data: '0x608060405234801561001057600080fd5b50610173806100206000396000f3fe608060405234801561001057600080fd5b506004361061002b5760003560e01c80639476f92214610030575b600080fd5b61003861004e565b604051610045919061011b565b60405180910390f35b60606040518060400160405280600b81526020017f48656c6c6f20776f726c64000000000000000000000000000000000000000000815250905090565b600081519050919050565b600082825260208201905092915050565b60005b838110156100c55780820151818401526020810190506100aa565b60008484015250505050565b6000601f19601f8301169050919050565b60006100ed8261008b565b6100f78185610096565b93506101078185602086016100a7565b610110816100d1565b840191505092915050565b6000602082019050818103600083015261013581846100e2565b90509291505056fea26469706673582212207b1b4370a0fa5a09eb95d0f3106f86ef833bffa2aed9d25d3495f8e2e65ffc4564736f6c63430008130033', \n     arguments: [\n     ]\n}).send({\n     from: web3.eth.accounts[0], \n     gas: '4700000'\n   }, function (e, contract){\n    console.log(e, contract);\n    if (typeof contract.address !== 'undefined') {\n         console.log('Contract mined! address: ' + contract.address + ' transactionHash: ' + contract.transactionHash);\n    }\n })",
	"functionHashes": {
		"9476f922": "hello_world()"
	},
	"gasEstimates": {
		"Creation": {
			"codeDepositCost": "74200",
			"executionCost": "123",
			"totalCost": "74323"
		},
		"External": {
			"hello_world()": "infinite"
		}
	},
	"devdoc": {
		"kind": "dev",
		"methods": {},
		"version": 1
	},
	"userdoc": {
		"kind": "user",
		"methods": {},
		"version": 1
	},
	"Runtime Bytecode": {
		"immutableReferences": {},
		"linkReferences": {},
		"object": "608060405234801561001057600080fd5b506004361061002b5760003560e01c80639476f92214610030575b600080fd5b61003861004e565b604051610045919061011b565b60405180910390f35b60606040518060400160405280600b81526020017f48656c6c6f20776f726c64000000000000000000000000000000000000000000815250905090565b600081519050919050565b600082825260208201905092915050565b60005b838110156100c55780820151818401526020810190506100aa565b60008484015250505050565b6000601f19601f8301169050919050565b60006100ed8261008b565b6100f78185610096565b93506101078185602086016100a7565b610110816100d1565b840191505092915050565b6000602082019050818103600083015261013581846100e2565b90509291505056fea26469706673582212207b1b4370a0fa5a09eb95d0f3106f86ef833bffa2aed9d25d3495f8e2e65ffc4564736f6c63430008130033",
		"opcodes": "PUSH1 0x80 PUSH1 0x40 MSTORE CALLVALUE DUP1 ISZERO PUSH2 0x10 JUMPI PUSH1 0x0 DUP1 REVERT JUMPDEST POP PUSH1 0x4 CALLDATASIZE LT PUSH2 0x2B JUMPI PUSH1 0x0 CALLDATALOAD PUSH1 0xE0 SHR DUP1 PUSH4 0x9476F922 EQ PUSH2 0x30 JUMPI JUMPDEST PUSH1 0x0 DUP1 REVERT JUMPDEST PUSH2 0x38 PUSH2 0x4E JUMP JUMPDEST PUSH1 0x40 MLOAD PUSH2 0x45 SWAP2 SWAP1 PUSH2 0x11B JUMP JUMPDEST PUSH1 0x40 MLOAD DUP1 SWAP2 SUB SWAP1 RETURN JUMPDEST PUSH1 0x60 PUSH1 0x40 MLOAD DUP1 PUSH1 0x40 ADD PUSH1 0x40 MSTORE DUP1 PUSH1 0xB DUP2 MSTORE PUSH1 0x20 ADD PUSH32 0x48656C6C6F20776F726C64000000000000000000000000000000000000000000 DUP2 MSTORE POP SWAP1 POP SWAP1 JUMP JUMPDEST PUSH1 0x0 DUP2 MLOAD SWAP1 POP SWAP2 SWAP1 POP JUMP JUMPDEST PUSH1 0x0 DUP3 DUP3 MSTORE PUSH1 0x20 DUP3 ADD SWAP1 POP SWAP3 SWAP2 POP POP JUMP JUMPDEST PUSH1 0x0 JUMPDEST DUP4 DUP2 LT ISZERO PUSH2 0xC5 JUMPI DUP1 DUP3 ADD MLOAD DUP2 DUP5 ADD MSTORE PUSH1 0x20 DUP2 ADD SWAP1 POP PUSH2 0xAA JUMP JUMPDEST PUSH1 0x0 DUP5 DUP5 ADD MSTORE POP POP POP POP JUMP JUMPDEST PUSH1 0x0 PUSH1 0x1F NOT PUSH1 0x1F DUP4 ADD AND SWAP1 POP SWAP2 SWAP1 POP JUMP JUMPDEST PUSH1 0x0 PUSH2 0xED DUP3 PUSH2 0x8B JUMP JUMPDEST PUSH2 0xF7 DUP2 DUP6 PUSH2 0x96 JUMP JUMPDEST SWAP4 POP PUSH2 0x107 DUP2 DUP6 PUSH1 0x20 DUP7 ADD PUSH2 0xA7 JUMP JUMPDEST PUSH2 0x110 DUP2 PUSH2 0xD1 JUMP JUMPDEST DUP5 ADD SWAP2 POP POP SWAP3 SWAP2 POP POP JUMP JUMPDEST PUSH1 0x0 PUSH1 0x20 DUP3 ADD SWAP1 POP DUP2 DUP2 SUB PUSH1 0x0 DUP4 ADD MSTORE PUSH2 0x135 DUP2 DUP5 PUSH2 0xE2 JUMP JUMPDEST SWAP1 POP SWAP3 SWAP2 POP POP JUMP INVALID LOG2 PUSH5 0x6970667358 0x22 SLT KECCAK256 PUSH28 0x1B4370A0FA5A09EB95D0F3106F86EF833BFFA2AED9D25D3495F8E2E6 0x5F 0xFC GASLIMIT PUSH5 0x736F6C6343 STOP ADDMOD SGT STOP CALLER "
	},
	"Assembly": ".code\n  PUSH 80\t\t\tcontract hello{ \\n\\n    functi...\n  PUSH 40\t\t\tcontract hello{ \\n\\n    functi...\n  MSTORE \t\t\tcontract hello{ \\n\\n    functi...\n  CALLVALUE \t\t\tcontract hello{ \\n\\n    functi...\n  DUP1 \t\t\tcontract hello{ \\n\\n    functi...\n  ISZERO \t\t\tcontract hello{ \\n\\n    functi...\n  PUSH [tag] 1\t\t\tcontract hello{ \\n\\n    functi...\n  JUMPI \t\t\tcontract hello{ \\n\\n    functi...\n  PUSH 0\t\t\tcontract hello{ \\n\\n    functi...\n  DUP1 \t\t\tcontract hello{ \\n\\n    functi...\n  REVERT \t\t\tcontract hello{ \\n\\n    functi...\ntag 1\t\t\tcontract hello{ \\n\\n    functi...\n  JUMPDEST \t\t\tcontract hello{ \\n\\n    functi...\n  POP \t\t\tcontract hello{ \\n\\n    functi...\n  PUSH #[$] 0000000000000000000000000000000000000000000000000000000000000000\t\t\tcontract hello{ \\n\\n    functi...\n  DUP1 \t\t\tcontract hello{ \\n\\n    functi...\n  PUSH [$] 0000000000000000000000000000000000000000000000000000000000000000\t\t\tcontract hello{ \\n\\n    functi...\n  PUSH 0\t\t\tcontract hello{ \\n\\n    functi...\n  CODECOPY \t\t\tcontract hello{ \\n\\n    functi...\n  PUSH 0\t\t\tcontract hello{ \\n\\n    functi...\n  RETURN \t\t\tcontract hello{ \\n\\n    functi...\n.data\n  0:\n    .code\n      PUSH 80\t\t\tcontract hello{ \\n\\n    functi...\n      PUSH 40\t\t\tcontract hello{ \\n\\n    functi...\n      MSTORE \t\t\tcontract hello{ \\n\\n    functi...\n      CALLVALUE \t\t\tcontract hello{ \\n\\n    functi...\n      DUP1 \t\t\tcontract hello{ \\n\\n    functi...\n      ISZERO \t\t\tcontract hello{ \\n\\n    functi...\n      PUSH [tag] 1\t\t\tcontract hello{ \\n\\n    functi...\n      JUMPI \t\t\tcontract hello{ \\n\\n    functi...\n      PUSH 0\t\t\tcontract hello{ \\n\\n    functi...\n      DUP1 \t\t\tcontract hello{ \\n\\n    functi...\n      REVERT \t\t\tcontract hello{ \\n\\n    functi...\n    tag 1\t\t\tcontract hello{ \\n\\n    functi...\n      JUMPDEST \t\t\tcontract hello{ \\n\\n    functi...\n      POP \t\t\tcontract hello{ \\n\\n    functi...\n      PUSH 4\t\t\tcontract hello{ \\n\\n    functi...\n      CALLDATASIZE \t\t\tcontract hello{ \\n\\n    functi...\n      LT \t\t\tcontract hello{ \\n\\n    functi...\n      PUSH [tag] 2\t\t\tcontract hello{ \\n\\n    functi...\n      JUMPI \t\t\tcontract hello{ \\n\\n    functi...\n      PUSH 0\t\t\tcontract hello{ \\n\\n    functi...\n      CALLDATALOAD \t\t\tcontract hello{ \\n\\n    functi...\n      PUSH E0\t\t\tcontract hello{ \\n\\n    functi...\n      SHR \t\t\tcontract hello{ \\n\\n    functi...\n      DUP1 \t\t\tcontract hello{ \\n\\n    functi...\n      PUSH 9476F922\t\t\tcontract hello{ \\n\\n    functi...\n      EQ \t\t\tcontract hello{ \\n\\n    functi...\n      PUSH [tag] 3\t\t\tcontract hello{ \\n\\n    functi...\n      JUMPI \t\t\tcontract hello{ \\n\\n    functi...\n    tag 2\t\t\tcontract hello{ \\n\\n    functi...\n      JUMPDEST \t\t\tcontract hello{ \\n\\n    functi...\n      PUSH 0\t\t\tcontract hello{ \\n\\n    functi...\n      DUP1 \t\t\tcontract hello{ \\n\\n    functi...\n      REVERT \t\t\tcontract hello{ \\n\\n    functi...\n    tag 3\t\t\tfunction hello_world() public ...\n      JUMPDEST \t\t\tfunction hello_world() public ...\n      PUSH [tag] 4\t\t\tfunction hello_world() public ...\n      PUSH [tag] 5\t\t\tfunction hello_world() public ...\n      JUMP \t\t\tfunction hello_world() public ...\n    tag 4\t\t\tfunction hello_world() public ...\n      JUMPDEST \t\t\tfunction hello_world() public ...\n      PUSH 40\t\t\tfunction hello_world() public ...\n      MLOAD \t\t\tfunction hello_world() public ...\n      PUSH [tag] 6\t\t\tfunction hello_world() public ...\n      SWAP2 \t\t\tfunction hello_world() public ...\n      SWAP1 \t\t\tfunction hello_world() public ...\n      PUSH [tag] 7\t\t\tfunction hello_world() public ...\n      JUMP \t\t\tfunction hello_world() public ...\n    tag 6\t\t\tfunction hello_world() public ...\n      JUMPDEST \t\t\tfunction hello_world() public ...\n      PUSH 40\t\t\tfunction hello_world() public ...\n      MLOAD \t\t\tfunction hello_world() public ...\n      DUP1 \t\t\tfunction hello_world() public ...\n      SWAP2 \t\t\tfunction hello_world() public ...\n      SUB \t\t\tfunction hello_world() public ...\n      SWAP1 \t\t\tfunction hello_world() public ...\n      RETURN \t\t\tfunction hello_world() public ...\n    tag 5\t\t\tfunction hello_world() public ...\n      JUMPDEST \t\t\tfunction hello_world() public ...\n      PUSH 60\t\t\tstring memory\n      PUSH 40\t\t\treturn \"Hello world\"\n      MLOAD \t\t\treturn \"Hello world\"\n      DUP1 \t\t\treturn \"Hello world\"\n      PUSH 40\t\t\treturn \"Hello world\"\n      ADD \t\t\treturn \"Hello world\"\n      PUSH 40\t\t\treturn \"Hello world\"\n      MSTORE \t\t\treturn \"Hello world\"\n      DUP1 \t\t\treturn \"Hello world\"\n      PUSH B\t\t\treturn \"Hello world\"\n      DUP2 \t\t\treturn \"Hello world\"\n      MSTORE \t\t\treturn \"Hello world\"\n      PUSH 20\t\t\treturn \"Hello world\"\n      ADD \t\t\treturn \"Hello world\"\n      PUSH 48656C6C6F20776F726C64000000000000000000000000000000000000000000\t\t\treturn \"Hello world\"\n      DUP2 \t\t\treturn \"Hello world\"\n      MSTORE \t\t\treturn \"Hello world\"\n      POP \t\t\treturn \"Hello world\"\n      SWAP1 \t\t\treturn \"Hello world\"\n      POP \t\t\treturn \"Hello world\"\n      SWAP1 \t\t\tfunction hello_world() public ...\n      JUMP \t\t\tfunction hello_world() public ...\n    tag 9\t\t\t-License-Identifier: MIT\\n\\npr...\n      JUMPDEST \t\t\t-License-Identifier: MIT\\n\\npr...\n      PUSH 0\t\t\tontrac\n      DUP2 \t\t\to_wor\n      MLOAD \t\t\tn hello_worl\n      SWAP1 \t\t\t   function hello_worl\n      POP \t\t\t   function hello_worl\n      SWAP2 \t\t\t-License-Identifier: MIT\\n\\npr...\n      SWAP1 \t\t\t-License-Identifier: MIT\\n\\npr...\n      POP \t\t\t-License-Identifier: MIT\\n\\npr...\n      JUMP \t\t\t-License-Identifier: MIT\\n\\npr...\n    tag 10\t\t\tre returns( string memory){\\n ...\n      JUMPDEST \t\t\tre returns( string memory){\\n ...\n      PUSH 0\t\t\t\n      DUP3 \t\t\t\n      DUP3 \t\t\t\n      MSTORE \t\t\t\n      PUSH 20\t\t\t\n      DUP3 \t\t\t\n      ADD \t\t\t\n      SWAP1 \t\t\t\n      POP \t\t\t\n      SWAP3 \t\t\tre returns( string memory){\\n ...\n      SWAP2 \t\t\tre returns( string memory){\\n ...\n      POP \t\t\tre returns( string memory){\\n ...\n      POP \t\t\tre returns( string memory){\\n ...\n      JUMP \t\t\tre returns( string memory){\\n ...\n    tag 11\t\t\t\n      JUMPDEST \t\t\t\n      PUSH 0\t\t\t\n    tag 18\t\t\t\n      JUMPDEST \t\t\t\n      DUP4 \t\t\t\n      DUP2 \t\t\t\n      LT \t\t\t\n      ISZERO \t\t\t\n      PUSH [tag] 20\t\t\t\n      JUMPI \t\t\t\n      DUP1 \t\t\t\n      DUP3 \t\t\t\n      ADD \t\t\t\n      MLOAD \t\t\t\n      DUP2 \t\t\t\n      DUP5 \t\t\t\n      ADD \t\t\t\n      MSTORE \t\t\t\n      PUSH 20\t\t\t\n      DUP2 \t\t\t\n      ADD \t\t\t\n      SWAP1 \t\t\t\n      POP \t\t\t\n      PUSH [tag] 18\t\t\t\n      JUMP \t\t\t\n    tag 20\t\t\t\n      JUMPDEST \t\t\t\n      PUSH 0\t\t\t\n      DUP5 \t\t\t\n      DUP5 \t\t\t\n      ADD \t\t\t\n      MSTORE \t\t\t\n      POP \t\t\t\n      POP \t\t\t\n      POP \t\t\t\n      POP \t\t\t\n      JUMP \t\t\t\n    tag 12\t\t\t\n      JUMPDEST \t\t\t\n      PUSH 0\t\t\t\n      PUSH 1F\t\t\t\n      NOT \t\t\t\n      PUSH 1F\t\t\t\n      DUP4 \t\t\t\n      ADD \t\t\t\n      AND \t\t\t\n      SWAP1 \t\t\t\n      POP \t\t\t\n      SWAP2 \t\t\t\n      SWAP1 \t\t\t\n      POP \t\t\t\n      JUMP \t\t\t\n    tag 13\t\t\t\n      JUMPDEST \t\t\t\n      PUSH 0\t\t\t\n      PUSH [tag] 23\t\t\t\n      DUP3 \t\t\t\n      PUSH [tag] 9\t\t\t\n      JUMP \t\t\t\n    tag 23\t\t\t\n      JUMPDEST \t\t\t\n      PUSH [tag] 24\t\t\t\n      DUP2 \t\t\t\n      DUP6 \t\t\t\n      PUSH [tag] 10\t\t\t\n      JUMP \t\t\t\n    tag 24\t\t\t\n      JUMPDEST \t\t\t\n      SWAP4 \t\t\t\n      POP \t\t\t\n      PUSH [tag] 25\t\t\t\n      DUP2 \t\t\t\n      DUP6 \t\t\t\n      PUSH 20\t\t\t\n      DUP7 \t\t\t\n      ADD \t\t\t\n      PUSH [tag] 11\t\t\t\n      JUMP \t\t\t\n    tag 25\t\t\t\n      JUMPDEST \t\t\t\n      PUSH [tag] 26\t\t\t\n      DUP2 \t\t\t\n      PUSH [tag] 12\t\t\t\n      JUMP \t\t\t\n    tag 26\t\t\t\n      JUMPDEST \t\t\t\n      DUP5 \t\t\t\n      ADD \t\t\t\n      SWAP2 \t\t\t\n      POP \t\t\t\n      POP \t\t\t\n      SWAP3 \t\t\t\n      SWAP2 \t\t\t\n      POP \t\t\t\n      POP \t\t\t\n      JUMP \t\t\t\n    tag 7\t\t\t\n      JUMPDEST \t\t\t\n      PUSH 0\t\t\t\n      PUSH 20\t\t\t\n      DUP3 \t\t\t\n      ADD \t\t\t\n      SWAP1 \t\t\t\n      POP \t\t\t\n      DUP2 \t\t\t\n      DUP2 \t\t\t\n      SUB \t\t\t\n      PUSH 0\t\t\t\n      DUP4 \t\t\t\n      ADD \t\t\t\n      MSTORE \t\t\t\n      PUSH [tag] 28\t\t\t\n      DUP2 \t\t\t\n      DUP5 \t\t\t\n      PUSH [tag] 13\t\t\t\n      JUMP \t\t\t\n    tag 28\t\t\t\n      JUMPDEST \t\t\t\n      SWAP1 \t\t\t\n      POP \t\t\t\n      SWAP3 \t\t\t\n      SWAP2 \t\t\t\n      POP \t\t\t\n      POP \t\t\t\n      JUMP \t\t\t\n    .data\n"
}